{
  "contractName": "FlightSuretyApp",
  "abi": [
    {
      "inputs": [],
      "stateMutability": "nonpayable",
      "type": "constructor"
    },
    {
      "anonymous": false,
      "inputs": [
        {
          "indexed": false,
          "internalType": "address",
          "name": "airline",
          "type": "address"
        },
        {
          "indexed": false,
          "internalType": "string",
          "name": "flight",
          "type": "string"
        },
        {
          "indexed": false,
          "internalType": "uint256",
          "name": "timestamp",
          "type": "uint256"
        },
        {
          "indexed": false,
          "internalType": "uint8",
          "name": "status",
          "type": "uint8"
        }
      ],
      "name": "FlightStatusInfo",
      "type": "event"
    },
    {
      "anonymous": false,
      "inputs": [
        {
          "indexed": false,
          "internalType": "bool",
          "name": "operational",
          "type": "bool"
        }
      ],
      "name": "OperationalChanged",
      "type": "event"
    },
    {
      "anonymous": false,
      "inputs": [
        {
          "indexed": false,
          "internalType": "address",
          "name": "airline",
          "type": "address"
        },
        {
          "indexed": false,
          "internalType": "string",
          "name": "flight",
          "type": "string"
        },
        {
          "indexed": false,
          "internalType": "uint256",
          "name": "timestamp",
          "type": "uint256"
        },
        {
          "indexed": false,
          "internalType": "uint8",
          "name": "status",
          "type": "uint8"
        }
      ],
      "name": "OracleReport",
      "type": "event"
    },
    {
      "anonymous": false,
      "inputs": [
        {
          "indexed": false,
          "internalType": "uint8",
          "name": "index",
          "type": "uint8"
        },
        {
          "indexed": false,
          "internalType": "address",
          "name": "airline",
          "type": "address"
        },
        {
          "indexed": false,
          "internalType": "string",
          "name": "flight",
          "type": "string"
        },
        {
          "indexed": false,
          "internalType": "uint256",
          "name": "timestamp",
          "type": "uint256"
        }
      ],
      "name": "OracleRequest",
      "type": "event"
    },
    {
      "inputs": [],
      "name": "REGISTRATION_FEE",
      "outputs": [
        {
          "internalType": "uint256",
          "name": "",
          "type": "uint256"
        }
      ],
      "stateMutability": "view",
      "type": "function",
      "constant": true
    },
    {
      "inputs": [
        {
          "internalType": "bool",
          "name": "_operational",
          "type": "bool"
        }
      ],
      "name": "setOperational",
      "outputs": [],
      "stateMutability": "nonpayable",
      "type": "function"
    },
    {
      "inputs": [],
      "name": "isOperational",
      "outputs": [
        {
          "internalType": "bool",
          "name": "",
          "type": "bool"
        }
      ],
      "stateMutability": "view",
      "type": "function",
      "constant": true
    },
    {
      "inputs": [],
      "name": "isOwner",
      "outputs": [
        {
          "internalType": "bool",
          "name": "",
          "type": "bool"
        }
      ],
      "stateMutability": "view",
      "type": "function",
      "constant": true
    },
    {
      "inputs": [],
      "name": "registerAirline",
      "outputs": [
        {
          "internalType": "bool",
          "name": "success",
          "type": "bool"
        },
        {
          "internalType": "uint256",
          "name": "votes",
          "type": "uint256"
        }
      ],
      "stateMutability": "pure",
      "type": "function",
      "constant": true
    },
    {
      "inputs": [],
      "name": "registerFlight",
      "outputs": [],
      "stateMutability": "pure",
      "type": "function",
      "constant": true
    },
    {
      "inputs": [
        {
          "internalType": "address",
          "name": "airline",
          "type": "address"
        },
        {
          "internalType": "string",
          "name": "flight",
          "type": "string"
        },
        {
          "internalType": "uint256",
          "name": "timestamp",
          "type": "uint256"
        }
      ],
      "name": "fetchFlightStatus",
      "outputs": [],
      "stateMutability": "nonpayable",
      "type": "function"
    },
    {
      "inputs": [],
      "name": "registerOracle",
      "outputs": [],
      "stateMutability": "payable",
      "type": "function",
      "payable": true
    },
    {
      "inputs": [],
      "name": "getMyIndexes",
      "outputs": [
        {
          "internalType": "uint8[3]",
          "name": "",
          "type": "uint8[3]"
        }
      ],
      "stateMutability": "view",
      "type": "function",
      "constant": true
    },
    {
      "inputs": [
        {
          "internalType": "uint8",
          "name": "index",
          "type": "uint8"
        },
        {
          "internalType": "address",
          "name": "airline",
          "type": "address"
        },
        {
          "internalType": "string",
          "name": "flight",
          "type": "string"
        },
        {
          "internalType": "uint256",
          "name": "timestamp",
          "type": "uint256"
        },
        {
          "internalType": "uint8",
          "name": "statusCode",
          "type": "uint8"
        }
      ],
      "name": "submitOracleResponse",
      "outputs": [],
      "stateMutability": "nonpayable",
      "type": "function"
    }
  ],
  "bytecode": "0x608060405260008060006101000a81548160ff0219169083151502179055506000600260006101000a81548160ff021916908360ff16021790555034801561004657600080fd5b5033600060016101000a81548173ffffffffffffffffffffffffffffffffffffffff021916908373ffffffffffffffffffffffffffffffffffffffff160217905550611920806100976000396000f3fe6080604052600436106100915760003560e01c80638f32d59b116100595780638f32d59b1461014b578063ae6f17e014610176578063c10f27001461018d578063cd905dff146101b6578063f83f11c0146101e157610091565b8063339d259014610096578063500b94aa146100a05780635f1cc0e6146100c957806363e29a3f146100f457806364b4f75114610120575b600080fd5b61009e61020a565b005b3480156100ac57600080fd5b506100c760048036038101906100c29190610e23565b6102f7565b005b3480156100d557600080fd5b506100de6103e7565b6040516100eb9190610f08565b60405180910390f35b34801561010057600080fd5b50610109610527565b604051610117929190610f4b565b60405180910390f35b34801561012c57600080fd5b50610135610535565b6040516101429190610f74565b60405180910390f35b34801561015757600080fd5b50610160610541565b60405161016d9190610f8f565b60405180910390f35b34801561018257600080fd5b5061018b610598565b005b34801561019957600080fd5b506101b460048036038101906101af91906111a6565b61059a565b005b3480156101c257600080fd5b506101cb610929565b6040516101d89190610f8f565b60405180910390f35b3480156101ed57600080fd5b506102086004803603810190610203919061123d565b61093f565b005b670de0b6b3a7640000341015610255576040517f08c379a000000000000000000000000000000000000000000000000000000000815260040161024c90611309565b60405180910390fd5b600061026033610a45565b9050604051806040016040528060011515815260200182815250600360003373ffffffffffffffffffffffffffffffffffffffff1673ffffffffffffffffffffffffffffffffffffffff16815260200190815260200160002060008201518160000160006101000a81548160ff0219169083151502179055506020820151816001019060036102f0929190610cfe565b5090505050565b600060019054906101000a900473ffffffffffffffffffffffffffffffffffffffff1673ffffffffffffffffffffffffffffffffffffffff163373ffffffffffffffffffffffffffffffffffffffff1614610387576040517f08c379a000000000000000000000000000000000000000000000000000000000815260040161037e90611375565b60405180910390fd5b806000806101000a81548160ff0219169083151502179055507f9769e31fce73f435ede42838fdb5eb5e815ba0768a92fe522e1c3fcabb4d80a660008054906101000a900460ff166040516103dc9190610f8f565b60405180910390a150565b6103ef610d98565b600360003373ffffffffffffffffffffffffffffffffffffffff1673ffffffffffffffffffffffffffffffffffffffff16815260200190815260200160002060000160009054906101000a900460ff1661047e576040517f08c379a0000000000000000000000000000000000000000000000000000000008152600401610475906113e1565b60405180910390fd5b600360003373ffffffffffffffffffffffffffffffffffffffff1673ffffffffffffffffffffffffffffffffffffffff16815260200190815260200160002060010160038060200260405190810160405280929190826003801561051d576020028201916000905b82829054906101000a900460ff1660ff16815260200190600101906020826000010492830192600103820291508084116104e65790505b5050505050905090565b600080816000915091509091565b670de0b6b3a764000081565b60008060019054906101000a900473ffffffffffffffffffffffffffffffffffffffff1673ffffffffffffffffffffffffffffffffffffffff163373ffffffffffffffffffffffffffffffffffffffff1614905090565b565b8460ff16600360003373ffffffffffffffffffffffffffffffffffffffff1673ffffffffffffffffffffffffffffffffffffffff1681526020019081526020016000206001016000600381106105f3576105f2611401565b5b602091828204019190069054906101000a900460ff1660ff16148061068757508460ff16600360003373ffffffffffffffffffffffffffffffffffffffff1673ffffffffffffffffffffffffffffffffffffffff16815260200190815260200160002060010160016003811061066c5761066b611401565b5b602091828204019190069054906101000a900460ff1660ff16145b8061070157508460ff16600360003373ffffffffffffffffffffffffffffffffffffffff1673ffffffffffffffffffffffffffffffffffffffff1681526020019081526020016000206001016002600381106106e6576106e5611401565b5b602091828204019190069054906101000a900460ff1660ff16145b610740576040517f08c379a0000000000000000000000000000000000000000000000000000000008152600401610737906114a2565b60405180910390fd5b60008585858560405160200161075994939291906115db565b6040516020818303038152906040528051906020012090506004600082815260200190815260200160002060000160149054906101000a900460ff166107d4576040517f08c379a00000000000000000000000000000000000000000000000000000000081526004016107cb90611697565b60405180910390fd5b6004600082815260200190815260200160002060010160008360ff1660ff168152602001908152602001600020339080600181540180825580915050600190039060005260206000200160009091909190916101000a81548173ffffffffffffffffffffffffffffffffffffffff021916908373ffffffffffffffffffffffffffffffffffffffff1602179055507f43c853095c2752648493c88b4baac4d580d2594ffb00c6f1d4242d844514f78385858585604051610897949392919061170e565b60405180910390a160036004600083815260200190815260200160002060010160008460ff1660ff1681526020019081526020016000208054905010610921577fe23f5229de535c091e3b7bec2665f5d698192d3b31393066e8987b7a05076b6c8585858560405161090c949392919061170e565b60405180910390a161092085858585610c2c565b5b505050505050565b60008060009054906101000a900460ff16905090565b600061094a33610c32565b905060008185858560405160200161096594939291906115db565b604051602081830303815290604052805190602001209050336004600083815260200190815260200160002060000160006101000a81548173ffffffffffffffffffffffffffffffffffffffff021916908373ffffffffffffffffffffffffffffffffffffffff16021790555060016004600083815260200190815260200160002060000160146101000a81548160ff0219169083151502179055507f3ed01f2c3fc24c6b329d931e35b03e390d23497d22b3f90e15b600343e93df1182868686604051610a36949392919061175a565b60405180910390a15050505050565b610a4d610d98565b610a55610d98565b610a5e83610c32565b81600060038110610a7257610a71611401565b5b602002019060ff16908160ff168152505080600060038110610a9757610a96611401565b5b602002015181600160038110610ab057610aaf611401565b5b602002019060ff16908160ff16815250505b80600060038110610ad657610ad5611401565b5b602002015160ff1681600160038110610af257610af1611401565b5b602002015160ff161415610b3357610b0983610c32565b81600160038110610b1d57610b1c611401565b5b602002019060ff16908160ff1681525050610ac2565b80600160038110610b4757610b46611401565b5b602002015181600260038110610b6057610b5f611401565b5b602002019060ff16908160ff16815250505b80600060038110610b8657610b85611401565b5b602002015160ff1681600260038110610ba257610ba1611401565b5b602002015160ff161480610beb575080600160038110610bc557610bc4611401565b5b602002015160ff1681600260038110610be157610be0611401565b5b602002015160ff16145b15610c2357610bf983610c32565b81600260038110610c0d57610c0c611401565b5b602002019060ff16908160ff1681525050610b72565b80915050919050565b50505050565b600080600a905060008160ff166002600081819054906101000a900460ff1680929190610c5e906117d5565b91906101000a81548160ff021916908360ff16021790555060ff1643610c8491906117ff565b4085604051602001610c9792919061185e565b6040516020818303038152906040528051906020012060001c610cba91906118b9565b905060fa600260009054906101000a900460ff1660ff161115610cf4576000600260006101000a81548160ff021916908360ff1602179055505b8092505050919050565b826003601f01602090048101928215610d875791602002820160005b83821115610d5857835183826101000a81548160ff021916908360ff1602179055509260200192600101602081600001049283019260010302610d1a565b8015610d855782816101000a81549060ff0219169055600101602081600001049283019260010302610d58565b505b509050610d949190610dba565b5090565b6040518060600160405280600390602082028036833780820191505090505090565b5b80821115610dd3576000816000905550600101610dbb565b5090565b6000604051905090565b600080fd5b600080fd5b60008115159050919050565b610e0081610deb565b8114610e0b57600080fd5b50565b600081359050610e1d81610df7565b92915050565b600060208284031215610e3957610e38610de1565b5b6000610e4784828501610e0e565b91505092915050565b600060039050919050565b600081905092915050565b6000819050919050565b600060ff82169050919050565b610e8681610e70565b82525050565b6000610e988383610e7d565b60208301905092915050565b6000602082019050919050565b610eba81610e50565b610ec48184610e5b565b9250610ecf82610e66565b8060005b83811015610f00578151610ee78782610e8c565b9650610ef283610ea4565b925050600181019050610ed3565b505050505050565b6000606082019050610f1d6000830184610eb1565b92915050565b610f2c81610deb565b82525050565b6000819050919050565b610f4581610f32565b82525050565b6000604082019050610f606000830185610f23565b610f6d6020830184610f3c565b9392505050565b6000602082019050610f896000830184610f3c565b92915050565b6000602082019050610fa46000830184610f23565b92915050565b610fb381610e70565b8114610fbe57600080fd5b50565b600081359050610fd081610faa565b92915050565b600073ffffffffffffffffffffffffffffffffffffffff82169050919050565b600061100182610fd6565b9050919050565b61101181610ff6565b811461101c57600080fd5b50565b60008135905061102e81611008565b92915050565b600080fd5b600080fd5b6000601f19601f8301169050919050565b7f4e487b7100000000000000000000000000000000000000000000000000000000600052604160045260246000fd5b6110878261103e565b810181811067ffffffffffffffff821117156110a6576110a561104f565b5b80604052505050565b60006110b9610dd7565b90506110c5828261107e565b919050565b600067ffffffffffffffff8211156110e5576110e461104f565b5b6110ee8261103e565b9050602081019050919050565b82818337600083830152505050565b600061111d611118846110ca565b6110af565b90508281526020810184848401111561113957611138611039565b5b6111448482856110fb565b509392505050565b600082601f83011261116157611160611034565b5b813561117184826020860161110a565b91505092915050565b61118381610f32565b811461118e57600080fd5b50565b6000813590506111a08161117a565b92915050565b600080600080600060a086880312156111c2576111c1610de1565b5b60006111d088828901610fc1565b95505060206111e18882890161101f565b945050604086013567ffffffffffffffff81111561120257611201610de6565b5b61120e8882890161114c565b935050606061121f88828901611191565b925050608061123088828901610fc1565b9150509295509295909350565b60008060006060848603121561125657611255610de1565b5b60006112648682870161101f565b935050602084013567ffffffffffffffff81111561128557611284610de6565b5b6112918682870161114c565b92505060406112a286828701611191565b9150509250925092565b600082825260208201905092915050565b7f526567697374726174696f6e2066656520697320726571756972656400000000600082015250565b60006112f3601c836112ac565b91506112fe826112bd565b602082019050919050565b60006020820190508181036000830152611322816112e6565b9050919050565b7f43616c6c6572206973206e6f7420636f6e7472616374206f776e657200000000600082015250565b600061135f601c836112ac565b915061136a82611329565b602082019050919050565b6000602082019050818103600083015261138e81611352565b9050919050565b7f4e6f74207265676973746572656420617320616e206f7261636c650000000000600082015250565b60006113cb601b836112ac565b91506113d682611395565b602082019050919050565b600060208201905081810360008301526113fa816113be565b9050919050565b7f4e487b7100000000000000000000000000000000000000000000000000000000600052603260045260246000fd5b7f496e64657820646f6573206e6f74206d61746368206f7261636c65207265717560008201527f6573740000000000000000000000000000000000000000000000000000000000602082015250565b600061148c6023836112ac565b915061149782611430565b604082019050919050565b600060208201905081810360008301526114bb8161147f565b9050919050565b60008160f81b9050919050565b60006114da826114c2565b9050919050565b6114f26114ed82610e70565b6114cf565b82525050565b60008160601b9050919050565b6000611510826114f8565b9050919050565b600061152282611505565b9050919050565b61153a61153582610ff6565b611517565b82525050565b600081519050919050565b600081905092915050565b60005b83811015611574578082015181840152602081019050611559565b83811115611583576000848401525b50505050565b600061159482611540565b61159e818561154b565b93506115ae818560208601611556565b80840191505092915050565b6000819050919050565b6115d56115d082610f32565b6115ba565b82525050565b60006115e782876114e1565b6001820191506115f78286611529565b6014820191506116078285611589565b915061161382846115c4565b60208201915081905095945050505050565b7f466c69676874206f722074696d657374616d7020646f206e6f74206d6174636860008201527f206f7261636c6520726571756573740000000000000000000000000000000000602082015250565b6000611681602f836112ac565b915061168c82611625565b604082019050919050565b600060208201905081810360008301526116b081611674565b9050919050565b6116c081610ff6565b82525050565b60006116d182611540565b6116db81856112ac565b93506116eb818560208601611556565b6116f48161103e565b840191505092915050565b61170881610e70565b82525050565b600060808201905061172360008301876116b7565b818103602083015261173581866116c6565b90506117446040830185610f3c565b61175160608301846116ff565b95945050505050565b600060808201905061176f60008301876116ff565b61177c60208301866116b7565b818103604083015261178e81856116c6565b905061179d6060830184610f3c565b95945050505050565b7f4e487b7100000000000000000000000000000000000000000000000000000000600052601160045260246000fd5b60006117e082610e70565b915060ff8214156117f4576117f36117a6565b5b600182019050919050565b600061180a82610f32565b915061181583610f32565b925082821015611828576118276117a6565b5b828203905092915050565b6000819050919050565b6000819050919050565b61185861185382611833565b61183d565b82525050565b600061186a8285611847565b60208201915061187a8284611529565b6014820191508190509392505050565b7f4e487b7100000000000000000000000000000000000000000000000000000000600052601260045260246000fd5b60006118c482610f32565b91506118cf83610f32565b9250826118df576118de61188a565b5b82820690509291505056fea26469706673582212203538bf8f06eb639c56e2c1fb1c30662426782b7eb101438fbe0d8b4755bdc28964736f6c63430008090033",
  "immutableReferences": {},
  "source": "// SPDX-License-Identifier: MIT\npragma solidity >=0.8.0 <0.9.0;\n\n// It's important to avoid vulnerabilities due to numeric overflow bugs\n// OpenZeppelin's SafeMath library, when used correctly, protects agains such bugs\n// More info: https://www.nccgroup.trust/us/about-us/newsroom-and-events/blog/2018/november/smart-contract-insecurity-bad-arithmetic/\n\nimport \"../node_modules/@openzeppelin/contracts/utils/math/SafeMath.sol\";\n\n/************************************************** */\n/* FlightSurety Smart Contract                      */\n/************************************************** */\ncontract FlightSuretyApp {\n    using SafeMath for uint256; // Allow SafeMath functions to be called for all uint256 types (similar to \"prototype\" in Javascript)\n\n    /********************************************************************************************/\n    /*                                       DATA VARIABLES                                     */\n    /********************************************************************************************/\n\n    // Flight status codees\n    uint8 private constant STATUS_CODE_UNKNOWN = 0;\n    uint8 private constant STATUS_CODE_ON_TIME = 10;\n    uint8 private constant STATUS_CODE_LATE_AIRLINE = 20;\n    uint8 private constant STATUS_CODE_LATE_WEATHER = 30;\n    uint8 private constant STATUS_CODE_LATE_TECHNICAL = 40;\n    uint8 private constant STATUS_CODE_LATE_OTHER = 50;\n\n    bool private operational = false;\n\n    address private contractOwner; // Account used to deploy contract\n    struct Flight {\n        bool isRegistered;\n        uint8 statusCode;\n        uint256 updatedTimestamp;\n        address airline;\n    }\n    mapping(bytes32 => Flight) private flights;\n\n    /********************************************************************************************/\n    /*                                       FUNCTION MODIFIERS                                 */\n    /********************************************************************************************/\n\n    // Modifiers help avoid duplication of code. They are typically used to validate something\n    // before a function is allowed to be executed.\n\n    /**\n     * @dev Modifier that requires the \"operational\" boolean variable to be \"true\"\n     *      This is used on all state changing functions to pause the contract in\n     *      the event there is an issue that needs to be fixed\n     */\n    modifier requireIsOperational() {\n        // Modify to call data contract's status\n        require(operational, \"Contract is currently not operational\");\n        _; // All modifiers require an \"_\" which indicates where the function body will be added\n    }\n\n    /**\n     * @dev Modifier that requires the \"ContractOwner\" account to be the function caller\n     */\n    modifier requireContractOwner() {\n        require(msg.sender == contractOwner, \"Caller is not contract owner\");\n        _;\n    }\n\n    /********************************************************************************************/\n    /*                                       CONSTRUCTOR                                        */\n    /********************************************************************************************/\n\n    /**\n     * @dev Contract constructor\n     *\n     */\n    constructor() {\n        contractOwner = msg.sender;\n    }\n\n    /********************************************************************************************/\n    /*                                       UTILITY FUNCTIONS                                  */\n    /********************************************************************************************/\n\n    function setOperational(bool _operational) public requireContractOwner {\n        operational = _operational;\n\n        emit OperationalChanged(operational);\n    }\n\n    function isOperational() public view returns (bool) {\n        return operational;\n    }\n\n    function isOwner() public view returns (bool) {\n        return msg.sender == contractOwner;\n    }\n\n    /********************************************************************************************/\n    /*                                     SMART CONTRACT FUNCTIONS                             */\n    /********************************************************************************************/\n\n    /**\n     * @dev Add an airline to the registration queue\n     *\n     */\n    function registerAirline()\n        external\n        pure\n        returns (bool success, uint256 votes)\n    {\n        return (success, 0);\n    }\n\n    /**\n     * @dev Register a future flight for insuring.\n     *\n     */\n    function registerFlight() external pure {}\n\n    /**\n     * @dev Called after oracle has updated flight status\n     *\n     */\n    function processFlightStatus(\n        address airline,\n        string memory flight,\n        uint256 timestamp,\n        uint8 statusCode\n    ) internal pure {}\n\n    // Generate a request for oracles to fetch flight information\n    function fetchFlightStatus(\n        address airline,\n        string memory flight,\n        uint256 timestamp\n    ) external {\n        uint8 index = getRandomIndex(msg.sender);\n\n        // Generate a unique key for storing the request\n        bytes32 key = keccak256(\n            abi.encodePacked(index, airline, flight, timestamp)\n        );\n        oracleResponses[key].requester = msg.sender;\n        oracleResponses[key].isOpen = true;\n\n        emit OracleRequest(index, airline, flight, timestamp);\n    }\n\n    // region ORACLE MANAGEMENT\n\n    // Incremented to add pseudo-randomness at various points\n    uint8 private nonce = 0;\n\n    // Fee to be paid when registering oracle\n    uint256 public constant REGISTRATION_FEE = 1 ether;\n\n    // Number of oracles that must respond for valid status\n    uint256 private constant MIN_RESPONSES = 3;\n\n    struct Oracle {\n        bool isRegistered;\n        uint8[3] indexes;\n    }\n\n    // Track all registered oracles\n    mapping(address => Oracle) private oracles;\n\n    // Model for responses from oracles\n    struct ResponseInfo {\n        address requester; // Account that requested status\n        bool isOpen; // If open, oracle responses are accepted\n        mapping(uint8 => address[]) responses; // Mapping key is the status code reported\n        // This lets us group responses and identify\n        // the response that majority of the oracles\n    }\n\n    // Track all oracle responses\n    // Key = hash(index, flight, timestamp)\n    mapping(bytes32 => ResponseInfo) private oracleResponses;\n\n    event OperationalChanged(bool operational);\n\n    // Event fired each time an oracle submits a response\n    event FlightStatusInfo(\n        address airline,\n        string flight,\n        uint256 timestamp,\n        uint8 status\n    );\n\n    event OracleReport(\n        address airline,\n        string flight,\n        uint256 timestamp,\n        uint8 status\n    );\n\n    // Event fired when flight status request is submitted\n    // Oracles track this and if they have a matching index\n    // they fetch data and submit a response\n    event OracleRequest(\n        uint8 index,\n        address airline,\n        string flight,\n        uint256 timestamp\n    );\n\n    // Register an oracle with the contract\n    function registerOracle() external payable {\n        // Require registration fee\n        require(msg.value >= REGISTRATION_FEE, \"Registration fee is required\");\n\n        uint8[3] memory indexes = generateIndexes(msg.sender);\n\n        oracles[msg.sender] = Oracle({isRegistered: true, indexes: indexes});\n    }\n\n    function getMyIndexes() external view returns (uint8[3] memory) {\n        require(\n            oracles[msg.sender].isRegistered,\n            \"Not registered as an oracle\"\n        );\n\n        return oracles[msg.sender].indexes;\n    }\n\n    // Called by oracle when a response is available to an outstanding request\n    // For the response to be accepted, there must be a pending request that is open\n    // and matches one of the three Indexes randomly assigned to the oracle at the\n    // time of registration (i.e. uninvited oracles are not welcome)\n    function submitOracleResponse(\n        uint8 index,\n        address airline,\n        string memory flight,\n        uint256 timestamp,\n        uint8 statusCode\n    ) external {\n        require(\n            (oracles[msg.sender].indexes[0] == index) ||\n                (oracles[msg.sender].indexes[1] == index) ||\n                (oracles[msg.sender].indexes[2] == index),\n            \"Index does not match oracle request\"\n        );\n\n        bytes32 key = keccak256(\n            abi.encodePacked(index, airline, flight, timestamp)\n        );\n        require(\n            oracleResponses[key].isOpen,\n            \"Flight or timestamp do not match oracle request\"\n        );\n\n        oracleResponses[key].responses[statusCode].push(msg.sender);\n\n        // Information isn't considered verified until at least MIN_RESPONSES\n        // oracles respond with the *** same *** information\n        emit OracleReport(airline, flight, timestamp, statusCode);\n        if (\n            oracleResponses[key].responses[statusCode].length >= MIN_RESPONSES\n        ) {\n            emit FlightStatusInfo(airline, flight, timestamp, statusCode);\n\n            // Handle flight status as appropriate\n            processFlightStatus(airline, flight, timestamp, statusCode);\n        }\n    }\n\n    function getFlightKey(\n        address airline,\n        string memory flight,\n        uint256 timestamp\n    ) internal pure returns (bytes32) {\n        return keccak256(abi.encodePacked(airline, flight, timestamp));\n    }\n\n    // Returns array of three non-duplicating integers from 0-9\n    function generateIndexes(address account)\n        internal\n        returns (uint8[3] memory)\n    {\n        uint8[3] memory indexes;\n        indexes[0] = getRandomIndex(account);\n\n        indexes[1] = indexes[0];\n        while (indexes[1] == indexes[0]) {\n            indexes[1] = getRandomIndex(account);\n        }\n\n        indexes[2] = indexes[1];\n        while ((indexes[2] == indexes[0]) || (indexes[2] == indexes[1])) {\n            indexes[2] = getRandomIndex(account);\n        }\n\n        return indexes;\n    }\n\n    // Returns array of three non-duplicating integers from 0-9\n    function getRandomIndex(address account) internal returns (uint8) {\n        uint8 maxValue = 10;\n\n        // Pseudo random number...the incrementing nonce adds variation\n        uint8 random = uint8(\n            uint256(\n                keccak256(\n                    abi.encodePacked(blockhash(block.number - nonce++), account)\n                )\n            ) % maxValue\n        );\n\n        if (nonce > 250) {\n            nonce = 0; // Can only fetch blockhashes for last 256 blocks so we adapt\n        }\n\n        return random;\n    }\n\n    // endregion\n}\n",
  "sourcePath": "D:\\Developpement\\Github\\FlightSurety-React\\contracts\\FlightSuretyApp.sol",
  "compiler": {
    "name": "solc",
    "version": "0.8.9+commit.e5eed63a.Emscripten.clang"
  },
  "schemaVersion": "3.4.3",
  "updatedAt": "2021-10-26T15:40:42.470Z",
  "networkType": "ethereum",
  "devdoc": {
    "kind": "dev",
    "methods": {
      "constructor": {
        "details": "Contract constructor"
      },
      "registerAirline()": {
        "details": "Add an airline to the registration queue"
      },
      "registerFlight()": {
        "details": "Register a future flight for insuring."
      }
    },
    "version": 1
  },
  "userdoc": {
    "kind": "user",
    "methods": {},
    "version": 1
  }
}