{
  "contractName": "FlightSuretyApp",
  "abi": [
    {
      "inputs": [],
      "stateMutability": "nonpayable",
      "type": "constructor"
    },
    {
      "anonymous": false,
      "inputs": [
        {
          "indexed": false,
          "internalType": "address",
          "name": "airline",
          "type": "address"
        },
        {
          "indexed": false,
          "internalType": "string",
          "name": "flight",
          "type": "string"
        },
        {
          "indexed": false,
          "internalType": "uint256",
          "name": "timestamp",
          "type": "uint256"
        },
        {
          "indexed": false,
          "internalType": "uint8",
          "name": "status",
          "type": "uint8"
        }
      ],
      "name": "FlightStatusInfo",
      "type": "event"
    },
    {
      "anonymous": false,
      "inputs": [
        {
          "indexed": false,
          "internalType": "address",
          "name": "airline",
          "type": "address"
        },
        {
          "indexed": false,
          "internalType": "string",
          "name": "flight",
          "type": "string"
        },
        {
          "indexed": false,
          "internalType": "uint256",
          "name": "timestamp",
          "type": "uint256"
        },
        {
          "indexed": false,
          "internalType": "uint8",
          "name": "status",
          "type": "uint8"
        }
      ],
      "name": "OracleReport",
      "type": "event"
    },
    {
      "anonymous": false,
      "inputs": [
        {
          "indexed": false,
          "internalType": "uint8",
          "name": "index",
          "type": "uint8"
        },
        {
          "indexed": false,
          "internalType": "address",
          "name": "airline",
          "type": "address"
        },
        {
          "indexed": false,
          "internalType": "string",
          "name": "flight",
          "type": "string"
        },
        {
          "indexed": false,
          "internalType": "uint256",
          "name": "timestamp",
          "type": "uint256"
        }
      ],
      "name": "OracleRequest",
      "type": "event"
    },
    {
      "inputs": [],
      "name": "REGISTRATION_FEE",
      "outputs": [
        {
          "internalType": "uint256",
          "name": "",
          "type": "uint256"
        }
      ],
      "stateMutability": "view",
      "type": "function",
      "constant": true
    },
    {
      "inputs": [],
      "name": "isOperational",
      "outputs": [
        {
          "internalType": "bool",
          "name": "",
          "type": "bool"
        }
      ],
      "stateMutability": "view",
      "type": "function",
      "constant": true
    },
    {
      "inputs": [],
      "name": "registerAirline",
      "outputs": [
        {
          "internalType": "bool",
          "name": "success",
          "type": "bool"
        },
        {
          "internalType": "uint256",
          "name": "votes",
          "type": "uint256"
        }
      ],
      "stateMutability": "pure",
      "type": "function",
      "constant": true
    },
    {
      "inputs": [],
      "name": "registerFlight",
      "outputs": [],
      "stateMutability": "pure",
      "type": "function",
      "constant": true
    },
    {
      "inputs": [
        {
          "internalType": "address",
          "name": "airline",
          "type": "address"
        },
        {
          "internalType": "string",
          "name": "flight",
          "type": "string"
        },
        {
          "internalType": "uint256",
          "name": "timestamp",
          "type": "uint256"
        }
      ],
      "name": "fetchFlightStatus",
      "outputs": [],
      "stateMutability": "nonpayable",
      "type": "function"
    },
    {
      "inputs": [],
      "name": "registerOracle",
      "outputs": [],
      "stateMutability": "payable",
      "type": "function",
      "payable": true
    },
    {
      "inputs": [],
      "name": "getMyIndexes",
      "outputs": [
        {
          "internalType": "uint8[3]",
          "name": "",
          "type": "uint8[3]"
        }
      ],
      "stateMutability": "view",
      "type": "function",
      "constant": true
    },
    {
      "inputs": [
        {
          "internalType": "uint8",
          "name": "index",
          "type": "uint8"
        },
        {
          "internalType": "address",
          "name": "airline",
          "type": "address"
        },
        {
          "internalType": "string",
          "name": "flight",
          "type": "string"
        },
        {
          "internalType": "uint256",
          "name": "timestamp",
          "type": "uint256"
        },
        {
          "internalType": "uint8",
          "name": "statusCode",
          "type": "uint8"
        }
      ],
      "name": "submitOracleResponse",
      "outputs": [],
      "stateMutability": "nonpayable",
      "type": "function"
    }
  ],
  "bytecode": "0x608060405260016000806101000a81548160ff0219169083151502179055506000600260006101000a81548160ff021916908360ff16021790555034801561004657600080fd5b5033600060016101000a81548173ffffffffffffffffffffffffffffffffffffffff021916908373ffffffffffffffffffffffffffffffffffffffff1602179055506116aa806100976000396000f3fe60806040526004361061007b5760003560e01c8063ae6f17e01161004e578063ae6f17e01461010c578063c10f270014610123578063cd905dff1461014c578063f83f11c0146101775761007b565b8063339d2590146100805780635f1cc0e61461008a57806363e29a3f146100b557806364b4f751146100e1575b600080fd5b6100886101a0565b005b34801561009657600080fd5b5061009f61028d565b6040516100ac9190610cde565b60405180910390f35b3480156100c157600080fd5b506100ca6103cd565b6040516100d8929190610d2d565b60405180910390f35b3480156100ed57600080fd5b506100f66103db565b6040516101039190610d56565b60405180910390f35b34801561011857600080fd5b506101216103e7565b005b34801561012f57600080fd5b5061014a60048036038101906101459190610f81565b6103e9565b005b34801561015857600080fd5b50610161610778565b60405161016e9190611018565b60405180910390f35b34801561018357600080fd5b5061019e60048036038101906101999190611033565b61078e565b005b670de0b6b3a76400003410156101eb576040517f08c379a00000000000000000000000000000000000000000000000000000000081526004016101e2906110ff565b60405180910390fd5b60006101f633610894565b9050604051806040016040528060011515815260200182815250600360003373ffffffffffffffffffffffffffffffffffffffff1673ffffffffffffffffffffffffffffffffffffffff16815260200190815260200160002060008201518160000160006101000a81548160ff021916908315150217905550602082015181600101906003610286929190610b4d565b5090505050565b610295610be7565b600360003373ffffffffffffffffffffffffffffffffffffffff1673ffffffffffffffffffffffffffffffffffffffff16815260200190815260200160002060000160009054906101000a900460ff16610324576040517f08c379a000000000000000000000000000000000000000000000000000000000815260040161031b9061116b565b60405180910390fd5b600360003373ffffffffffffffffffffffffffffffffffffffff1673ffffffffffffffffffffffffffffffffffffffff1681526020019081526020016000206001016003806020026040519081016040528092919082600380156103c3576020028201916000905b82829054906101000a900460ff1660ff168152602001906001019060208260000104928301926001038202915080841161038c5790505b5050505050905090565b600080816000915091509091565b670de0b6b3a764000081565b565b8460ff16600360003373ffffffffffffffffffffffffffffffffffffffff1673ffffffffffffffffffffffffffffffffffffffff1681526020019081526020016000206001016000600381106104425761044161118b565b5b602091828204019190069054906101000a900460ff1660ff1614806104d657508460ff16600360003373ffffffffffffffffffffffffffffffffffffffff1673ffffffffffffffffffffffffffffffffffffffff1681526020019081526020016000206001016001600381106104bb576104ba61118b565b5b602091828204019190069054906101000a900460ff1660ff16145b8061055057508460ff16600360003373ffffffffffffffffffffffffffffffffffffffff1673ffffffffffffffffffffffffffffffffffffffff1681526020019081526020016000206001016002600381106105355761053461118b565b5b602091828204019190069054906101000a900460ff1660ff16145b61058f576040517f08c379a00000000000000000000000000000000000000000000000000000000081526004016105869061122c565b60405180910390fd5b6000858585856040516020016105a89493929190611365565b6040516020818303038152906040528051906020012090506004600082815260200190815260200160002060000160149054906101000a900460ff16610623576040517f08c379a000000000000000000000000000000000000000000000000000000000815260040161061a90611421565b60405180910390fd5b6004600082815260200190815260200160002060010160008360ff1660ff168152602001908152602001600020339080600181540180825580915050600190039060005260206000200160009091909190916101000a81548173ffffffffffffffffffffffffffffffffffffffff021916908373ffffffffffffffffffffffffffffffffffffffff1602179055507f43c853095c2752648493c88b4baac4d580d2594ffb00c6f1d4242d844514f783858585856040516106e69493929190611498565b60405180910390a160036004600083815260200190815260200160002060010160008460ff1660ff1681526020019081526020016000208054905010610770577fe23f5229de535c091e3b7bec2665f5d698192d3b31393066e8987b7a05076b6c8585858560405161075b9493929190611498565b60405180910390a161076f85858585610a7b565b5b505050505050565b60008060009054906101000a900460ff16905090565b600061079933610a81565b90506000818585856040516020016107b49493929190611365565b604051602081830303815290604052805190602001209050336004600083815260200190815260200160002060000160006101000a81548173ffffffffffffffffffffffffffffffffffffffff021916908373ffffffffffffffffffffffffffffffffffffffff16021790555060016004600083815260200190815260200160002060000160146101000a81548160ff0219169083151502179055507f3ed01f2c3fc24c6b329d931e35b03e390d23497d22b3f90e15b600343e93df118286868660405161088594939291906114e4565b60405180910390a15050505050565b61089c610be7565b6108a4610be7565b6108ad83610a81565b816000600381106108c1576108c061118b565b5b602002019060ff16908160ff1681525050806000600381106108e6576108e561118b565b5b6020020151816001600381106108ff576108fe61118b565b5b602002019060ff16908160ff16815250505b806000600381106109255761092461118b565b5b602002015160ff16816001600381106109415761094061118b565b5b602002015160ff1614156109825761095883610a81565b8160016003811061096c5761096b61118b565b5b602002019060ff16908160ff1681525050610911565b806001600381106109965761099561118b565b5b6020020151816002600381106109af576109ae61118b565b5b602002019060ff16908160ff16815250505b806000600381106109d5576109d461118b565b5b602002015160ff16816002600381106109f1576109f061118b565b5b602002015160ff161480610a3a575080600160038110610a1457610a1361118b565b5b602002015160ff1681600260038110610a3057610a2f61118b565b5b602002015160ff16145b15610a7257610a4883610a81565b81600260038110610a5c57610a5b61118b565b5b602002019060ff16908160ff16815250506109c1565b80915050919050565b50505050565b600080600a905060008160ff166002600081819054906101000a900460ff1680929190610aad9061155f565b91906101000a81548160ff021916908360ff16021790555060ff1643610ad39190611589565b4085604051602001610ae69291906115e8565b6040516020818303038152906040528051906020012060001c610b099190611643565b905060fa600260009054906101000a900460ff1660ff161115610b43576000600260006101000a81548160ff021916908360ff1602179055505b8092505050919050565b826003601f01602090048101928215610bd65791602002820160005b83821115610ba757835183826101000a81548160ff021916908360ff1602179055509260200192600101602081600001049283019260010302610b69565b8015610bd45782816101000a81549060ff0219169055600101602081600001049283019260010302610ba7565b505b509050610be39190610c09565b5090565b6040518060600160405280600390602082028036833780820191505090505090565b5b80821115610c22576000816000905550600101610c0a565b5090565b600060039050919050565b600081905092915050565b6000819050919050565b600060ff82169050919050565b610c5c81610c46565b82525050565b6000610c6e8383610c53565b60208301905092915050565b6000602082019050919050565b610c9081610c26565b610c9a8184610c31565b9250610ca582610c3c565b8060005b83811015610cd6578151610cbd8782610c62565b9650610cc883610c7a565b925050600181019050610ca9565b505050505050565b6000606082019050610cf36000830184610c87565b92915050565b60008115159050919050565b610d0e81610cf9565b82525050565b6000819050919050565b610d2781610d14565b82525050565b6000604082019050610d426000830185610d05565b610d4f6020830184610d1e565b9392505050565b6000602082019050610d6b6000830184610d1e565b92915050565b6000604051905090565b600080fd5b600080fd5b610d8e81610c46565b8114610d9957600080fd5b50565b600081359050610dab81610d85565b92915050565b600073ffffffffffffffffffffffffffffffffffffffff82169050919050565b6000610ddc82610db1565b9050919050565b610dec81610dd1565b8114610df757600080fd5b50565b600081359050610e0981610de3565b92915050565b600080fd5b600080fd5b6000601f19601f8301169050919050565b7f4e487b7100000000000000000000000000000000000000000000000000000000600052604160045260246000fd5b610e6282610e19565b810181811067ffffffffffffffff82111715610e8157610e80610e2a565b5b80604052505050565b6000610e94610d71565b9050610ea08282610e59565b919050565b600067ffffffffffffffff821115610ec057610ebf610e2a565b5b610ec982610e19565b9050602081019050919050565b82818337600083830152505050565b6000610ef8610ef384610ea5565b610e8a565b905082815260208101848484011115610f1457610f13610e14565b5b610f1f848285610ed6565b509392505050565b600082601f830112610f3c57610f3b610e0f565b5b8135610f4c848260208601610ee5565b91505092915050565b610f5e81610d14565b8114610f6957600080fd5b50565b600081359050610f7b81610f55565b92915050565b600080600080600060a08688031215610f9d57610f9c610d7b565b5b6000610fab88828901610d9c565b9550506020610fbc88828901610dfa565b945050604086013567ffffffffffffffff811115610fdd57610fdc610d80565b5b610fe988828901610f27565b9350506060610ffa88828901610f6c565b925050608061100b88828901610d9c565b9150509295509295909350565b600060208201905061102d6000830184610d05565b92915050565b60008060006060848603121561104c5761104b610d7b565b5b600061105a86828701610dfa565b935050602084013567ffffffffffffffff81111561107b5761107a610d80565b5b61108786828701610f27565b925050604061109886828701610f6c565b9150509250925092565b600082825260208201905092915050565b7f526567697374726174696f6e2066656520697320726571756972656400000000600082015250565b60006110e9601c836110a2565b91506110f4826110b3565b602082019050919050565b60006020820190508181036000830152611118816110dc565b9050919050565b7f4e6f74207265676973746572656420617320616e206f7261636c650000000000600082015250565b6000611155601b836110a2565b91506111608261111f565b602082019050919050565b6000602082019050818103600083015261118481611148565b9050919050565b7f4e487b7100000000000000000000000000000000000000000000000000000000600052603260045260246000fd5b7f496e64657820646f6573206e6f74206d61746368206f7261636c65207265717560008201527f6573740000000000000000000000000000000000000000000000000000000000602082015250565b60006112166023836110a2565b9150611221826111ba565b604082019050919050565b6000602082019050818103600083015261124581611209565b9050919050565b60008160f81b9050919050565b60006112648261124c565b9050919050565b61127c61127782610c46565b611259565b82525050565b60008160601b9050919050565b600061129a82611282565b9050919050565b60006112ac8261128f565b9050919050565b6112c46112bf82610dd1565b6112a1565b82525050565b600081519050919050565b600081905092915050565b60005b838110156112fe5780820151818401526020810190506112e3565b8381111561130d576000848401525b50505050565b600061131e826112ca565b61132881856112d5565b93506113388185602086016112e0565b80840191505092915050565b6000819050919050565b61135f61135a82610d14565b611344565b82525050565b6000611371828761126b565b60018201915061138182866112b3565b6014820191506113918285611313565b915061139d828461134e565b60208201915081905095945050505050565b7f466c69676874206f722074696d657374616d7020646f206e6f74206d6174636860008201527f206f7261636c6520726571756573740000000000000000000000000000000000602082015250565b600061140b602f836110a2565b9150611416826113af565b604082019050919050565b6000602082019050818103600083015261143a816113fe565b9050919050565b61144a81610dd1565b82525050565b600061145b826112ca565b61146581856110a2565b93506114758185602086016112e0565b61147e81610e19565b840191505092915050565b61149281610c46565b82525050565b60006080820190506114ad6000830187611441565b81810360208301526114bf8186611450565b90506114ce6040830185610d1e565b6114db6060830184611489565b95945050505050565b60006080820190506114f96000830187611489565b6115066020830186611441565b81810360408301526115188185611450565b90506115276060830184610d1e565b95945050505050565b7f4e487b7100000000000000000000000000000000000000000000000000000000600052601160045260246000fd5b600061156a82610c46565b915060ff82141561157e5761157d611530565b5b600182019050919050565b600061159482610d14565b915061159f83610d14565b9250828210156115b2576115b1611530565b5b828203905092915050565b6000819050919050565b6000819050919050565b6115e26115dd826115bd565b6115c7565b82525050565b60006115f482856115d1565b60208201915061160482846112b3565b6014820191508190509392505050565b7f4e487b7100000000000000000000000000000000000000000000000000000000600052601260045260246000fd5b600061164e82610d14565b915061165983610d14565b92508261166957611668611614565b5b82820690509291505056fea26469706673582212201a14d13a36bceb4122979fe22b561a918b910a56c5c405b3b899bb6ad9c11b8f64736f6c63430008090033",
  "immutableReferences": {},
  "source": "// SPDX-License-Identifier: MIT\npragma solidity >=0.8.0 <0.9.0;\n\n// It's important to avoid vulnerabilities due to numeric overflow bugs\n// OpenZeppelin's SafeMath library, when used correctly, protects agains such bugs\n// More info: https://www.nccgroup.trust/us/about-us/newsroom-and-events/blog/2018/november/smart-contract-insecurity-bad-arithmetic/\n\nimport \"../node_modules/@openzeppelin/contracts/utils/math/SafeMath.sol\";\n\n/************************************************** */\n/* FlightSurety Smart Contract                      */\n/************************************************** */\ncontract FlightSuretyApp {\n    using SafeMath for uint256; // Allow SafeMath functions to be called for all uint256 types (similar to \"prototype\" in Javascript)\n\n    /********************************************************************************************/\n    /*                                       DATA VARIABLES                                     */\n    /********************************************************************************************/\n\n    // Flight status codees\n    uint8 private constant STATUS_CODE_UNKNOWN = 0;\n    uint8 private constant STATUS_CODE_ON_TIME = 10;\n    uint8 private constant STATUS_CODE_LATE_AIRLINE = 20;\n    uint8 private constant STATUS_CODE_LATE_WEATHER = 30;\n    uint8 private constant STATUS_CODE_LATE_TECHNICAL = 40;\n    uint8 private constant STATUS_CODE_LATE_OTHER = 50;\n\n    bool private operationalStatus = true;\n\n    address private contractOwner; // Account used to deploy contract\n\n    struct Flight {\n        bool isRegistered;\n        uint8 statusCode;\n        uint256 updatedTimestamp;\n        address airline;\n    }\n    mapping(bytes32 => Flight) private flights;\n\n    /********************************************************************************************/\n    /*                                       FUNCTION MODIFIERS                                 */\n    /********************************************************************************************/\n\n    // Modifiers help avoid duplication of code. They are typically used to validate something\n    // before a function is allowed to be executed.\n\n    /**\n     * @dev Modifier that requires the \"operational\" boolean variable to be \"true\"\n     *      This is used on all state changing functions to pause the contract in\n     *      the event there is an issue that needs to be fixed\n     */\n    modifier requireIsOperational() {\n        // Modify to call data contract's status\n        require(operationalStatus, \"Contract is currently not operational\");\n        _; // All modifiers require an \"_\" which indicates where the function body will be added\n    }\n\n    /**\n     * @dev Modifier that requires the \"ContractOwner\" account to be the function caller\n     */\n    modifier requireContractOwner() {\n        require(msg.sender == contractOwner, \"Caller is not contract owner\");\n        _;\n    }\n\n    /********************************************************************************************/\n    /*                                       CONSTRUCTOR                                        */\n    /********************************************************************************************/\n\n    /**\n     * @dev Contract constructor\n     *\n     */\n    constructor() {\n        contractOwner = msg.sender;\n    }\n\n    /********************************************************************************************/\n    /*                                       UTILITY FUNCTIONS                                  */\n    /********************************************************************************************/\n\n    function isOperational() public view returns (bool) {\n        return operationalStatus; // Modify to call data contract's status\n    }\n\n    /********************************************************************************************/\n    /*                                     SMART CONTRACT FUNCTIONS                             */\n    /********************************************************************************************/\n\n    /**\n     * @dev Add an airline to the registration queue\n     *\n     */\n    function registerAirline()\n        external\n        pure\n        returns (bool success, uint256 votes)\n    {\n        return (success, 0);\n    }\n\n    /**\n     * @dev Register a future flight for insuring.\n     *\n     */\n    function registerFlight() external pure {}\n\n    /**\n     * @dev Called after oracle has updated flight status\n     *\n     */\n    function processFlightStatus(\n        address airline,\n        string memory flight,\n        uint256 timestamp,\n        uint8 statusCode\n    ) internal pure {}\n\n    // Generate a request for oracles to fetch flight information\n    function fetchFlightStatus(\n        address airline,\n        string memory flight,\n        uint256 timestamp\n    ) external {\n        uint8 index = getRandomIndex(msg.sender);\n\n        // Generate a unique key for storing the request\n        bytes32 key = keccak256(\n            abi.encodePacked(index, airline, flight, timestamp)\n        );\n        oracleResponses[key].requester = msg.sender;\n        oracleResponses[key].isOpen = true;\n\n        emit OracleRequest(index, airline, flight, timestamp);\n    }\n\n    // region ORACLE MANAGEMENT\n\n    // Incremented to add pseudo-randomness at various points\n    uint8 private nonce = 0;\n\n    // Fee to be paid when registering oracle\n    uint256 public constant REGISTRATION_FEE = 1 ether;\n\n    // Number of oracles that must respond for valid status\n    uint256 private constant MIN_RESPONSES = 3;\n\n    struct Oracle {\n        bool isRegistered;\n        uint8[3] indexes;\n    }\n\n    // Track all registered oracles\n    mapping(address => Oracle) private oracles;\n\n    // Model for responses from oracles\n    struct ResponseInfo {\n        address requester; // Account that requested status\n        bool isOpen; // If open, oracle responses are accepted\n        mapping(uint8 => address[]) responses; // Mapping key is the status code reported\n        // This lets us group responses and identify\n        // the response that majority of the oracles\n    }\n\n    // Track all oracle responses\n    // Key = hash(index, flight, timestamp)\n    mapping(bytes32 => ResponseInfo) private oracleResponses;\n\n    // Event fired each time an oracle submits a response\n    event FlightStatusInfo(\n        address airline,\n        string flight,\n        uint256 timestamp,\n        uint8 status\n    );\n\n    event OracleReport(\n        address airline,\n        string flight,\n        uint256 timestamp,\n        uint8 status\n    );\n\n    // Event fired when flight status request is submitted\n    // Oracles track this and if they have a matching index\n    // they fetch data and submit a response\n    event OracleRequest(\n        uint8 index,\n        address airline,\n        string flight,\n        uint256 timestamp\n    );\n\n    // Register an oracle with the contract\n    function registerOracle() external payable {\n        // Require registration fee\n        require(msg.value >= REGISTRATION_FEE, \"Registration fee is required\");\n\n        uint8[3] memory indexes = generateIndexes(msg.sender);\n\n        oracles[msg.sender] = Oracle({isRegistered: true, indexes: indexes});\n    }\n\n    function getMyIndexes() external view returns (uint8[3] memory) {\n        require(\n            oracles[msg.sender].isRegistered,\n            \"Not registered as an oracle\"\n        );\n\n        return oracles[msg.sender].indexes;\n    }\n\n    // Called by oracle when a response is available to an outstanding request\n    // For the response to be accepted, there must be a pending request that is open\n    // and matches one of the three Indexes randomly assigned to the oracle at the\n    // time of registration (i.e. uninvited oracles are not welcome)\n    function submitOracleResponse(\n        uint8 index,\n        address airline,\n        string memory flight,\n        uint256 timestamp,\n        uint8 statusCode\n    ) external {\n        require(\n            (oracles[msg.sender].indexes[0] == index) ||\n                (oracles[msg.sender].indexes[1] == index) ||\n                (oracles[msg.sender].indexes[2] == index),\n            \"Index does not match oracle request\"\n        );\n\n        bytes32 key = keccak256(\n            abi.encodePacked(index, airline, flight, timestamp)\n        );\n        require(\n            oracleResponses[key].isOpen,\n            \"Flight or timestamp do not match oracle request\"\n        );\n\n        oracleResponses[key].responses[statusCode].push(msg.sender);\n\n        // Information isn't considered verified until at least MIN_RESPONSES\n        // oracles respond with the *** same *** information\n        emit OracleReport(airline, flight, timestamp, statusCode);\n        if (\n            oracleResponses[key].responses[statusCode].length >= MIN_RESPONSES\n        ) {\n            emit FlightStatusInfo(airline, flight, timestamp, statusCode);\n\n            // Handle flight status as appropriate\n            processFlightStatus(airline, flight, timestamp, statusCode);\n        }\n    }\n\n    function getFlightKey(\n        address airline,\n        string memory flight,\n        uint256 timestamp\n    ) internal pure returns (bytes32) {\n        return keccak256(abi.encodePacked(airline, flight, timestamp));\n    }\n\n    // Returns array of three non-duplicating integers from 0-9\n    function generateIndexes(address account)\n        internal\n        returns (uint8[3] memory)\n    {\n        uint8[3] memory indexes;\n        indexes[0] = getRandomIndex(account);\n\n        indexes[1] = indexes[0];\n        while (indexes[1] == indexes[0]) {\n            indexes[1] = getRandomIndex(account);\n        }\n\n        indexes[2] = indexes[1];\n        while ((indexes[2] == indexes[0]) || (indexes[2] == indexes[1])) {\n            indexes[2] = getRandomIndex(account);\n        }\n\n        return indexes;\n    }\n\n    // Returns array of three non-duplicating integers from 0-9\n    function getRandomIndex(address account) internal returns (uint8) {\n        uint8 maxValue = 10;\n\n        // Pseudo random number...the incrementing nonce adds variation\n        uint8 random = uint8(\n            uint256(\n                keccak256(\n                    abi.encodePacked(blockhash(block.number - nonce++), account)\n                )\n            ) % maxValue\n        );\n\n        if (nonce > 250) {\n            nonce = 0; // Can only fetch blockhashes for last 256 blocks so we adapt\n        }\n\n        return random;\n    }\n\n    // endregion\n}\n",
  "sourcePath": "D:\\Developpement\\Github\\FlightSurety-React\\contracts\\FlightSuretyApp.sol",
  "compiler": {
    "name": "solc",
    "version": "0.8.9+commit.e5eed63a.Emscripten.clang"
  },
  "schemaVersion": "3.4.3",
  "updatedAt": "2021-10-24T18:54:01.073Z",
  "networkType": "ethereum",
  "devdoc": {
    "kind": "dev",
    "methods": {
      "constructor": {
        "details": "Contract constructor"
      },
      "registerAirline()": {
        "details": "Add an airline to the registration queue"
      },
      "registerFlight()": {
        "details": "Register a future flight for insuring."
      }
    },
    "version": 1
  },
  "userdoc": {
    "kind": "user",
    "methods": {},
    "version": 1
  }
}